:100000000C945D000C9485000C9485000C94850084
:100010000C9485000C9485000C9485000C9485004C
:100020000C9485000C9485000C9485000C9485003C
:100030000C9485000C9485000C9485000C9485002C
:100040000C940B050C9485000C947B050C945505C1
:100050000C9485000C9485000C9485000C9485000C
:100060000C94EC030C948500000000002300260093
:10007000290000000000250028002B0004040404CF
:100080000404040402020202020203030303030342
:10009000010204081020408001020408102001021F
:1000A00004081020000000080002010000030407FB
:1000B0000000000000000000AD0511241FBECFEFBE
:1000C000D8E0DEBFCDBF11E0A0E0B1E0EEE0F0E1AE
:1000D00002C005900D92AA34B107D9F722E0AAE434
:1000E000B1E001C01D92A23CB207E1F710E0CDE5FE
:1000F000D0E004C02197FE010E94FF07CC35D10754
:10010000C9F70E94F5050C9405080C94000085EDD4
:100110008093BC008091BC0084FDFCCF1092E7016D
:1001200008952091C101260F3327331F2132310555
:10013000ECF42091E701FC0190E080E0243069F0CC
:1001400082E00895A091C1012191AC0141565E4F1A
:10015000A40FB52FB11D2C930196861798F38091AB
:10016000C101680F6093C10180E0089581E00895A6
:10017000089508950895E0919C0180919B01E817EE
:1001800030F4F0E0E558FE4F808190E008958FEF65
:100190009FEF089590919C0180919B012FEF3FEF7D
:1001A000981748F4E92FF0E0E558FE4F208130E041
:1001B0009F5F90939C01C901089580919B0190914C
:1001C0009C01891B990B0895CF92DF92EF92FF92C9
:1001D0000F931F93CF93DF937C01CB018A01209172
:1001E0007A01222389F0EB016B01C40ED51ECC15D8
:1001F000DD0569F06991D701ED91FC910190F081E5
:10020000E02DC7010995F3CF642F0E949100C8012A
:10021000DF91CF911F910F91FF90EF90DF90CF90E2
:100220000895CF93DF931F92CDB7DEB769832091F6
:100230007A012223F9F020919D01203258F021E02B
:1002400030E0FC013383228390E080E00F90DF9167
:10025000CF91089580919E01E82FF0E0E65AFE4F7D
:10026000998190838F5F80939E0180939D0181E0AF
:1002700090E0ECCF61E0CE0101960E949100F7CFB3
:10028000833081F028F4813099F08230A9F008950C
:100290008730A9F08830C9F08430B1F480918000B3
:1002A0008F7D03C0809180008F77809380000895B8
:1002B00084B58F7784BD089584B58F7DFBCF809101
:1002C000B0008F778093B00008958091B0008F7D4B
:1002D000F9CFCF93DF93282F30E0F901EC55FF4F92
:1002E0008491F901E057FF4FD491F901E458FF4F91
:1002F000C491CC2389F081110E944001EC2FF0E0E1
:10030000EE0FFF1FEE58FF4FA591B4918FB7F894F1
:10031000EC91DE2BDC938FBFDF91CF9108953FB737
:10032000F8948091560190915701A0915801B09195
:10033000590126B5A89B05C02F3F19F00196A11DB4
:10034000B11D3FBFBA2FA92F982F8827BC01CD011F
:10035000620F711D811D911D42E0660F771F881F7E
:10036000991F4A95D1F708958F929F92AF92BF92AD
:10037000CF92DF92EF92FF924B015C010E948F01BE
:100380006B017C010E948F016C197D098E099F0908
:10039000683E734081059105A8F321E0821A910817
:1003A000A108B10888EEC80E83E0D81EE11CF11C3C
:1003B00081149104A104B10429F7FF90EF90DF901C
:1003C000CF90BF90AF909F908F900895AF92BF92C3
:1003D000CF92DF92EF92FF920F931F93CF93DF9311
:1003E0006C017B018B01040F151FEB015E01AE1840
:1003F000BF08C017D10759F06991D601ED91FC9162
:100400000190F081E02DC6010995892B79F7C5018E
:10041000DF91CF911F910F91FF90EF90DF90CF90E0
:10042000BF90AF900895FC01538D448D252F30E08F
:10043000842F90E0821B930B541710F0CF960895F1
:1004400001970895FC01918D828D981761F0A28D1E
:10045000AE0FBF2FB11D5D968C91928D9F5F9F73E4
:10046000928F90E008958FEF9FEF0895FC01918D9A
:10047000828D981731F0828DE80FF11D858D90E007
:1004800008958FEF9FEF0895FC01918D228D892FA4
:1004900090E0805C9F4F821B91098F73992708958C
:1004A00089E192E00E94440221E0892B09F420E0D6
:1004B000822F089580E090E0892B29F00E9450025D
:1004C00081110C9400000895FC01A48DA80FB92F90
:1004D000B11DA35ABF4F2C91848D90E001968F736C
:1004E0009927848FA689B7892C93A089B1898C918B
:1004F000837080648C93938D848D981306C00288DA
:10050000F389E02D80818F7D80830895EF92FF92A3
:100510000F931F93CF93DF93EC0181E0888F9B8D26
:100520008C8D98131AC0E889F989808185FF15C0E0
:100530009FB7F894EE89FF896083E889F989808103
:100540008370806480839FBF81E090E0DF91CF91D2
:100550001F910F91FF90EF900895F62E0B8D10E0F4
:100560000F5F1F4F0F731127E02E8C8D8E110CC063
:100570000FB607FCFACFE889F989808185FFF5CFAE
:10058000CE010E946402F1CFEB8DEC0FFD2FF11D27
:10059000E35AFF4FF0829FB7F8940B8FEA89FB89EB
:1005A00080818062CFCFCF93DF93EC01888D882349
:1005B000B9F0AA89BB89E889F9898C9185FD03C0C6
:1005C000808186FD0DC00FB607FCF7CF8C9185FFAB
:1005D000F2CF808185FFEDCFCE010E946402E9CF8A
:1005E000DF91CF910895CF93FC01C48121E0209346
:1005F0007A01C0934A0110929E0110929D01838559
:10060000682B8DE092E00E94110190919D01913242
:1006100008F03FC08091E7018111FCCF82E0809318
:10062000E70181E08093E9018FEF8093E60110926A
:100630000B0290930A02AAE5B1E0EAEEF1E080E055
:1006400098132FC010920C0280910C02CC0FC82B73
:10065000C0930C028091E801813039F51092E801D5
:1006600080910C028093BB008091BC0083FDF8CF89
:1006700085EC8093BC008091E7018230E1F38091AA
:10068000E6018F3F31F08091E601803211F08091D8
:10069000E60110929E0110929D0110927A01CF9175
:1006A00008952D9121938F5FCBCF85EEE2CF0895F2
:1006B00090E080E00895FB0101900020E9F7319778
:1006C000AF01461B570BDC01ED91FC910280F381D9
:1006D000E02D09948F929F92AF92BF92EF92FF927A
:1006E0000F931F93CF93DF93CDB7DEB7A1970FB6CC
:1006F000F894DEBF0FBECDBF7C01FA01CB0119A279
:10070000223008F42AE08E010F5D1F4F822E912CBB
:10071000B12CA12CBF01A50194010E94DD07F901B4
:10072000CA016A300CF5605DD8016E938D01232BF0
:10073000242B252B79F790E080E0109721F0BD0164
:10074000C7010E945B03A1960FB6F894DEBF0FBEEF
:10075000CDBFDF91CF911F910F91FF90EF90BF9090
:10076000AF909F908F900895695CDECF0F931F9399
:10077000CF938C01C62F0E94F3026C2F6460C801D6
:100780000E94F3026C2F6B7FC8010E94F30283EC7E
:1007900090E00197F1F7CF911F910F9108950F937A
:1007A0001F93CF93DF938C01D62FC42F607F642BD0
:1007B0000E94B60380E1D89FB00111246C2BC801C0
:1007C000DF91CF911F910F910C94B60341E00E94ED
:1007D000CF0381E090E008951F920F920FB60F9221
:1007E00011242F933F934F935F936F937F938F9336
:1007F0009F93AF93BF93EF93FF938091B900887F4E
:10080000803609F44AC0F0F5883209F4A7C018F51B
:10081000803109F49BC0B8F4882309F4F9C088300A
:1008200009F494C0FF91EF91BF91AF919F918F9187
:100830007F916F915F914F913F912F910F900FBEDC
:100840000F901F901895883109F488C0803251F7B5
:100850008093E60114C0803409F49DC040F48033D5
:10086000B9F38833F9F68093E60185ECB0C08035A2
:1008700009F485C0883509F496C0883499F60E9439
:100880008700D0CF883909F48CC038F5883729F033
:1008900050F4883611F0803729F683E08093E70121
:1008A0001092E50157C0883809F47BC0803919F0EF
:1008B000803809F0B7CF8091E501803208F071C02F
:1008C000E091E50181E08E0F8093E5018091BB000E
:1008D000F0E0EB53FE4F80833DC0803B39F0E0F405
:1008E000803A09F479C0883A09F09CCF84E080937B
:1008F000E7011092C2011092C101E091BF01F09195
:10090000C00109958091C10181110FC081E08093E0
:10091000C10110929F0109C0803C09F4A6CF883C18
:1009200009F4A3CF883B09F07DCFE091C20181E0BB
:100930008E0F8093C201F0E0E156FE4F80818093DC
:10094000BB009091C2018091C10129C080910C022D
:100950008093BB0085EC8093BC0064CF90910B0228
:1009600080910A02981758F5E0910B0281E08E0FF2
:1009700080930B02F0E0E651FE4F8081E9CFE091D9
:100980000B0281E08E0F80930B028091BB00F0E0A0
:10099000E651FE4F808390910B0280910A029817D6
:1009A000C8F285E8D8CFE0910B0281E08E0F8093EA
:1009B0000B028091BB00F0E0E651FE4F80838091F6
:1009C000E90181115CCF81E08093E80184EA8093A2
:1009D000BC001092E70126CF85EC8093BC001092FA
:1009E000E7018091E501803230F4E091E501F0E02B
:1009F000EB53FE4F10826091E50170E0E091C3017E
:100A0000F091C40185EC91E009951092E5010ACFBF
:100A10001092E60134CF1F920F920FB60F9211245D
:100A20002F933F938F939F93AF93BF9380915201E6
:100A300090915301A0915401B09155013091510111
:100A400023E0230F2D3758F50196A11DB11D2093EA
:100A500051018093520190935301A0935401B0939C
:100A600055018091560190915701A0915801B09184
:100A700059010196A11DB11D809356019093570114
:100A8000A0935801B0935901BF91AF919F918F915D
:100A90003F912F910F900FBE0F901F90189526E851
:100AA000230F0296A11DB11DD2CF1F920F920FB638
:100AB0000F9211242F933F934F935F936F937F93E4
:100AC0008F939F93AF93BF93EF93FF9389E192E04E
:100AD0000E946402FF91EF91BF91AF919F918F911E
:100AE0007F916F915F914F913F912F910F900FBE2A
:100AF0000F901F9018951F920F920FB60F9211240E
:100B00002F938F939F93EF93FF93E0912902F0919E
:100B10002A028081E0912F02F091300282FD1BC0F9
:100B20009081809132028F5F8F7320913302821700
:100B300041F0E0913202F0E0E75EFD4F958F809347
:100B40003202FF91EF919F918F912F910F900FBEE5
:100B50000F901F9018958081F4CFEDE0F2E01382A2
:100B6000128288EE93E0A0E0B0E084839583A683B0
:100B7000B7832CE031E031832083E9E1F2E0138296
:100B8000128284839583A683B7838EE191E091835B
:100B9000808385EC90E09587848784EC90E097874C
:100BA000868780EC90E0918B808B81EC90E0938B3A
:100BB000828B82EC90E0958B848B86EC90E0978B17
:100BC000868B118E128E138E148EE6EBF2E013825A
:100BD000128280E391E09183808387E2848380E1C5
:100BE000818782E0828713860895CF93DF93CDB704
:100BF000DEB728970FB6F894DEBF0FBECDBF78944E
:100C000084B5826084BD84B5816084BD85B5826011
:100C100085BD85B5816085BD80916E0081608093C2
:100C20006E0010928100809181008260809381002B
:100C3000809181008160809381008091800081603B
:100C4000809380008091B10084608093B100809196
:100C5000B00081608093B00080917A0084608093BE
:100C60007A0080917A00826080937A0080917A0085
:100C7000816080937A0080917A00806880937A0006
:100C80001092C10010929C0110929B0110929E0143
:100C900010929D011092E70181E08093E90110928A
:100CA000E80182E10E94690183E10E94690180916B
:100CB000B9008E7F8093B9008091B9008D7F8093B9
:100CC000B90088E48093B80085E48093BC0088EB89
:100CD00090E09093C0018093BF0189EB90E09093E6
:100CE000C4018093C3011092BB028091C002823084
:100CF00018F098E09093BB028093BE0262E370E02C
:100D000080E090E00E94B4016091C10286EB92E025
:100D10000E94F30268EE73E080E090E00E94B4016C
:100D200060E386EB92E00E94B6030BE416E4C80190
:100D30000197F1F760E386EB92E00E94B603C801E9
:100D40000197F1F760E386EB92E00E94B60383E53A
:100D500092E00197F1F760E286EB92E00E94B60321
:100D60006091BB02606240E086EB92E00E94CF039C
:100D700084E08093BC0240E06CE086EB92E00E944D
:100D8000CF0340E061E086EB92E00E94CF030BE3EB
:100D90001FE1C8010197F1F722E0F22EF092BD02A7
:100DA00040E066E086EB92E00E94CF0340E062E024
:100DB00086EB92E00E94CF03C8010197F1F788E02B
:100DC0008093C10260E086EB92E00E94F30268E348
:100DD00071E086EB92E00E945B03E0912902F091C2
:100DE0002A02F082E0912502F09126021082E09121
:100DF0002702F09128028FEC808310923102E0915B
:100E00002D02F0912E0286E08083E0912B02F0917A
:100E10002C02808180618083E0912B02F0912C0272
:100E2000808188608083E0912B02F0912C02808188
:100E300080688083E0912B02F0912C0280818F7D6D
:100E4000808300EB10E03CE9E32E30E0F32E48E82D
:100E5000C42E40E0D42E50E0A52E50E0B52EF8016F
:100E60008491F7019490F6018490882009F4A2C03F
:100E700081110E944001E82DF0E0EE0FFF1FE859BC
:100E8000FF4FA591B4918C91982291E080E009F4F4
:100E900090E0892E982E9092500180924F0188E028
:100EA000E0E0F1E0DE01119601900D928A95E1F704
:100EB0008091BE02EFEF8111E1E0F0E0EE0FFF1F45
:100EC00081E090E08C0F9D1FE80FF91F6081606842
:100ED00040E086EB92E00E94CF038A94892861F576
:100EE00080914D0190914E01892B31F540904B013D
:100EF00050904C01EFEF4E1A5E0A50924C01409216
:100F00004B01052C000C660877082AE0B301A2010A
:100F100077FE0EC041E06DE286EB92E00E94CF03C7
:100F200044275527BA0144195509660977092AE06B
:100F300086EB92E00E946A0380914F0190915001EC
:100F400090934E0180934D0169E471E089E192E054
:100F50000E945B0340904B0150904C01052C000C0B
:100F6000660877082AE0B301A20177FE0DC06DE2A2
:100F700089E192E00E94860244275527BA0144196C
:100F80005509660977092AE089E192E00E946A031F
:100F900067E471E089E192E00E945B03A114B1046F
:100FA00009F45DCF0E945002882309F458CF0E94B3
:100FB000000055CF912C812C6ECFA1E21A2EAA1BD6
:100FC000BB1BFD010DC0AA1FBB1FEE1FFF1FA217F9
:100FD000B307E407F50720F0A21BB30BE40BF50BF6
:100FE000661F771F881F991F1A9469F7609570957F
:100FF000809590959B01AC01BD01CF010895EE0F46
:0E100000FF1F0590F491E02D0994F894FFCFA6
:10100E000000400014005400000000001101E40034
:10101E005803BA00DD00CA00BB00000000008602C3
:10102E00E6011302D302440222023602000000003F
:10103E00E603E60158035703427574746F6E205031
:0A104E00726573736573000D0A00EC
:00000001FF
